{
  "_format": "hh-sol-artifact-1",
  "contractName": "UniswapV2Router",
  "sourceName": "contracts/UniswapV2Router.sol",
  "abi": [
    {
      "inputs": [
        {
          "internalType": "address",
          "name": "_factory",
          "type": "address"
        },
        {
          "internalType": "address",
          "name": "_WETH",
          "type": "address"
        }
      ],
      "stateMutability": "nonpayable",
      "type": "constructor"
    },
    {
      "inputs": [],
      "name": "WETH",
      "outputs": [
        {
          "internalType": "address",
          "name": "",
          "type": "address"
        }
      ],
      "stateMutability": "view",
      "type": "function"
    },
    {
      "inputs": [
        {
          "internalType": "address",
          "name": "tokenA",
          "type": "address"
        },
        {
          "internalType": "address",
          "name": "tokenB",
          "type": "address"
        },
        {
          "internalType": "uint256",
          "name": "amountADesired",
          "type": "uint256"
        },
        {
          "internalType": "uint256",
          "name": "amountBDesired",
          "type": "uint256"
        },
        {
          "internalType": "uint256",
          "name": "amountAMin",
          "type": "uint256"
        },
        {
          "internalType": "uint256",
          "name": "amountBMin",
          "type": "uint256"
        },
        {
          "internalType": "address",
          "name": "to",
          "type": "address"
        },
        {
          "internalType": "uint256",
          "name": "deadline",
          "type": "uint256"
        }
      ],
      "name": "addLiquidity",
      "outputs": [
        {
          "internalType": "uint256",
          "name": "amountA",
          "type": "uint256"
        },
        {
          "internalType": "uint256",
          "name": "amountB",
          "type": "uint256"
        },
        {
          "internalType": "uint256",
          "name": "liquidity",
          "type": "uint256"
        }
      ],
      "stateMutability": "nonpayable",
      "type": "function"
    },
    {
      "inputs": [
        {
          "internalType": "address",
          "name": "token",
          "type": "address"
        },
        {
          "internalType": "uint256",
          "name": "amountTokenDesired",
          "type": "uint256"
        },
        {
          "internalType": "uint256",
          "name": "amountTokenMin",
          "type": "uint256"
        },
        {
          "internalType": "uint256",
          "name": "amountETHMin",
          "type": "uint256"
        },
        {
          "internalType": "address",
          "name": "to",
          "type": "address"
        },
        {
          "internalType": "uint256",
          "name": "deadline",
          "type": "uint256"
        }
      ],
      "name": "addLiquidityETH",
      "outputs": [
        {
          "internalType": "uint256",
          "name": "amountToken",
          "type": "uint256"
        },
        {
          "internalType": "uint256",
          "name": "amountETH",
          "type": "uint256"
        },
        {
          "internalType": "uint256",
          "name": "liquidity",
          "type": "uint256"
        }
      ],
      "stateMutability": "payable",
      "type": "function"
    },
    {
      "inputs": [],
      "name": "factory",
      "outputs": [
        {
          "internalType": "address",
          "name": "",
          "type": "address"
        }
      ],
      "stateMutability": "view",
      "type": "function"
    },
    {
      "inputs": [
        {
          "internalType": "uint256",
          "name": "amountOut",
          "type": "uint256"
        },
        {
          "internalType": "uint256",
          "name": "reserveIn",
          "type": "uint256"
        },
        {
          "internalType": "uint256",
          "name": "reserveOut",
          "type": "uint256"
        }
      ],
      "name": "getAmountIn",
      "outputs": [
        {
          "internalType": "uint256",
          "name": "amountIn",
          "type": "uint256"
        }
      ],
      "stateMutability": "pure",
      "type": "function"
    },
    {
      "inputs": [
        {
          "internalType": "uint256",
          "name": "amountIn",
          "type": "uint256"
        },
        {
          "internalType": "uint256",
          "name": "reserveIn",
          "type": "uint256"
        },
        {
          "internalType": "uint256",
          "name": "reserveOut",
          "type": "uint256"
        }
      ],
      "name": "getAmountOut",
      "outputs": [
        {
          "internalType": "uint256",
          "name": "amountOut",
          "type": "uint256"
        }
      ],
      "stateMutability": "pure",
      "type": "function"
    },
    {
      "inputs": [
        {
          "internalType": "uint256",
          "name": "amountOut",
          "type": "uint256"
        },
        {
          "internalType": "address[]",
          "name": "path",
          "type": "address[]"
        }
      ],
      "name": "getAmountsIn",
      "outputs": [
        {
          "internalType": "uint256[]",
          "name": "amounts",
          "type": "uint256[]"
        }
      ],
      "stateMutability": "view",
      "type": "function"
    },
    {
      "inputs": [
        {
          "internalType": "uint256",
          "name": "amountIn",
          "type": "uint256"
        },
        {
          "internalType": "address[]",
          "name": "path",
          "type": "address[]"
        }
      ],
      "name": "getAmountsOut",
      "outputs": [
        {
          "internalType": "uint256[]",
          "name": "amounts",
          "type": "uint256[]"
        }
      ],
      "stateMutability": "view",
      "type": "function"
    },
    {
      "inputs": [
        {
          "internalType": "uint256",
          "name": "amountA",
          "type": "uint256"
        },
        {
          "internalType": "uint256",
          "name": "reserveA",
          "type": "uint256"
        },
        {
          "internalType": "uint256",
          "name": "reserveB",
          "type": "uint256"
        }
      ],
      "name": "quote",
      "outputs": [
        {
          "internalType": "uint256",
          "name": "amountB",
          "type": "uint256"
        }
      ],
      "stateMutability": "pure",
      "type": "function"
    },
    {
      "inputs": [
        {
          "internalType": "address",
          "name": "tokenA",
          "type": "address"
        },
        {
          "internalType": "address",
          "name": "tokenB",
          "type": "address"
        },
        {
          "internalType": "uint256",
          "name": "liquidity",
          "type": "uint256"
        },
        {
          "internalType": "uint256",
          "name": "amountAMin",
          "type": "uint256"
        },
        {
          "internalType": "uint256",
          "name": "amountBMin",
          "type": "uint256"
        },
        {
          "internalType": "address",
          "name": "to",
          "type": "address"
        },
        {
          "internalType": "uint256",
          "name": "deadline",
          "type": "uint256"
        }
      ],
      "name": "removeLiquidity",
      "outputs": [
        {
          "internalType": "uint256",
          "name": "amountA",
          "type": "uint256"
        },
        {
          "internalType": "uint256",
          "name": "amountB",
          "type": "uint256"
        }
      ],
      "stateMutability": "nonpayable",
      "type": "function"
    },
    {
      "inputs": [
        {
          "internalType": "address",
          "name": "token",
          "type": "address"
        },
        {
          "internalType": "uint256",
          "name": "liquidity",
          "type": "uint256"
        },
        {
          "internalType": "uint256",
          "name": "amountTokenMin",
          "type": "uint256"
        },
        {
          "internalType": "uint256",
          "name": "amountETHMin",
          "type": "uint256"
        },
        {
          "internalType": "address",
          "name": "to",
          "type": "address"
        },
        {
          "internalType": "uint256",
          "name": "deadline",
          "type": "uint256"
        }
      ],
      "name": "removeLiquidityETH",
      "outputs": [
        {
          "internalType": "uint256",
          "name": "amountToken",
          "type": "uint256"
        },
        {
          "internalType": "uint256",
          "name": "amountETH",
          "type": "uint256"
        }
      ],
      "stateMutability": "nonpayable",
      "type": "function"
    },
    {
      "inputs": [
        {
          "internalType": "address",
          "name": "token",
          "type": "address"
        },
        {
          "internalType": "uint256",
          "name": "liquidity",
          "type": "uint256"
        },
        {
          "internalType": "uint256",
          "name": "amountTokenMin",
          "type": "uint256"
        },
        {
          "internalType": "uint256",
          "name": "amountETHMin",
          "type": "uint256"
        },
        {
          "internalType": "address",
          "name": "to",
          "type": "address"
        },
        {
          "internalType": "uint256",
          "name": "deadline",
          "type": "uint256"
        }
      ],
      "name": "removeLiquidityETHSupportingFeeOnTransferTokens",
      "outputs": [
        {
          "internalType": "uint256",
          "name": "amountETH",
          "type": "uint256"
        }
      ],
      "stateMutability": "nonpayable",
      "type": "function"
    },
    {
      "inputs": [
        {
          "internalType": "address",
          "name": "token",
          "type": "address"
        },
        {
          "internalType": "uint256",
          "name": "liquidity",
          "type": "uint256"
        },
        {
          "internalType": "uint256",
          "name": "amountTokenMin",
          "type": "uint256"
        },
        {
          "internalType": "uint256",
          "name": "amountETHMin",
          "type": "uint256"
        },
        {
          "internalType": "address",
          "name": "to",
          "type": "address"
        },
        {
          "internalType": "uint256",
          "name": "deadline",
          "type": "uint256"
        },
        {
          "internalType": "bool",
          "name": "approveMax",
          "type": "bool"
        },
        {
          "internalType": "uint8",
          "name": "v",
          "type": "uint8"
        },
        {
          "internalType": "bytes32",
          "name": "r",
          "type": "bytes32"
        },
        {
          "internalType": "bytes32",
          "name": "s",
          "type": "bytes32"
        }
      ],
      "name": "removeLiquidityETHWithPermit",
      "outputs": [
        {
          "internalType": "uint256",
          "name": "amountToken",
          "type": "uint256"
        },
        {
          "internalType": "uint256",
          "name": "amountETH",
          "type": "uint256"
        }
      ],
      "stateMutability": "nonpayable",
      "type": "function"
    },
    {
      "inputs": [
        {
          "internalType": "address",
          "name": "token",
          "type": "address"
        },
        {
          "internalType": "uint256",
          "name": "liquidity",
          "type": "uint256"
        },
        {
          "internalType": "uint256",
          "name": "amountTokenMin",
          "type": "uint256"
        },
        {
          "internalType": "uint256",
          "name": "amountETHMin",
          "type": "uint256"
        },
        {
          "internalType": "address",
          "name": "to",
          "type": "address"
        },
        {
          "internalType": "uint256",
          "name": "deadline",
          "type": "uint256"
        },
        {
          "internalType": "bool",
          "name": "approveMax",
          "type": "bool"
        },
        {
          "internalType": "uint8",
          "name": "v",
          "type": "uint8"
        },
        {
          "internalType": "bytes32",
          "name": "r",
          "type": "bytes32"
        },
        {
          "internalType": "bytes32",
          "name": "s",
          "type": "bytes32"
        }
      ],
      "name": "removeLiquidityETHWithPermitSupportingFeeOnTransferTokens",
      "outputs": [
        {
          "internalType": "uint256",
          "name": "amountETH",
          "type": "uint256"
        }
      ],
      "stateMutability": "nonpayable",
      "type": "function"
    },
    {
      "inputs": [
        {
          "internalType": "address",
          "name": "tokenA",
          "type": "address"
        },
        {
          "internalType": "address",
          "name": "tokenB",
          "type": "address"
        },
        {
          "internalType": "uint256",
          "name": "liquidity",
          "type": "uint256"
        },
        {
          "internalType": "uint256",
          "name": "amountAMin",
          "type": "uint256"
        },
        {
          "internalType": "uint256",
          "name": "amountBMin",
          "type": "uint256"
        },
        {
          "internalType": "address",
          "name": "to",
          "type": "address"
        },
        {
          "internalType": "uint256",
          "name": "deadline",
          "type": "uint256"
        },
        {
          "internalType": "bool",
          "name": "approveMax",
          "type": "bool"
        },
        {
          "internalType": "uint8",
          "name": "v",
          "type": "uint8"
        },
        {
          "internalType": "bytes32",
          "name": "r",
          "type": "bytes32"
        },
        {
          "internalType": "bytes32",
          "name": "s",
          "type": "bytes32"
        }
      ],
      "name": "removeLiquidityWithPermit",
      "outputs": [
        {
          "internalType": "uint256",
          "name": "amountA",
          "type": "uint256"
        },
        {
          "internalType": "uint256",
          "name": "amountB",
          "type": "uint256"
        }
      ],
      "stateMutability": "nonpayable",
      "type": "function"
    },
    {
      "inputs": [
        {
          "internalType": "uint256",
          "name": "amountOut",
          "type": "uint256"
        },
        {
          "internalType": "address[]",
          "name": "path",
          "type": "address[]"
        },
        {
          "internalType": "address",
          "name": "to",
          "type": "address"
        },
        {
          "internalType": "uint256",
          "name": "deadline",
          "type": "uint256"
        }
      ],
      "name": "swapETHForExactTokens",
      "outputs": [
        {
          "internalType": "uint256[]",
          "name": "amounts",
          "type": "uint256[]"
        }
      ],
      "stateMutability": "payable",
      "type": "function"
    },
    {
      "inputs": [
        {
          "internalType": "uint256",
          "name": "amountOutMin",
          "type": "uint256"
        },
        {
          "internalType": "address[]",
          "name": "path",
          "type": "address[]"
        },
        {
          "internalType": "address",
          "name": "to",
          "type": "address"
        },
        {
          "internalType": "uint256",
          "name": "deadline",
          "type": "uint256"
        }
      ],
      "name": "swapExactETHForTokens",
      "outputs": [
        {
          "internalType": "uint256[]",
          "name": "amounts",
          "type": "uint256[]"
        }
      ],
      "stateMutability": "payable",
      "type": "function"
    },
    {
      "inputs": [
        {
          "internalType": "uint256",
          "name": "amountIn",
          "type": "uint256"
        },
        {
          "internalType": "uint256",
          "name": "amountOutMin",
          "type": "uint256"
        },
        {
          "internalType": "address[]",
          "name": "path",
          "type": "address[]"
        },
        {
          "internalType": "address",
          "name": "to",
          "type": "address"
        },
        {
          "internalType": "uint256",
          "name": "deadline",
          "type": "uint256"
        }
      ],
      "name": "swapExactTokensForETH",
      "outputs": [
        {
          "internalType": "uint256[]",
          "name": "amounts",
          "type": "uint256[]"
        }
      ],
      "stateMutability": "nonpayable",
      "type": "function"
    },
    {
      "inputs": [
        {
          "internalType": "uint256",
          "name": "amountIn",
          "type": "uint256"
        },
        {
          "internalType": "uint256",
          "name": "amountOutMin",
          "type": "uint256"
        },
        {
          "internalType": "address[]",
          "name": "path",
          "type": "address[]"
        },
        {
          "internalType": "address",
          "name": "to",
          "type": "address"
        },
        {
          "internalType": "uint256",
          "name": "deadline",
          "type": "uint256"
        }
      ],
      "name": "swapExactTokensForTokens",
      "outputs": [
        {
          "internalType": "uint256[]",
          "name": "amounts",
          "type": "uint256[]"
        }
      ],
      "stateMutability": "nonpayable",
      "type": "function"
    },
    {
      "inputs": [
        {
          "internalType": "uint256",
          "name": "amountOut",
          "type": "uint256"
        },
        {
          "internalType": "uint256",
          "name": "amountInMax",
          "type": "uint256"
        },
        {
          "internalType": "address[]",
          "name": "path",
          "type": "address[]"
        },
        {
          "internalType": "address",
          "name": "to",
          "type": "address"
        },
        {
          "internalType": "uint256",
          "name": "deadline",
          "type": "uint256"
        }
      ],
      "name": "swapTokensForExactETH",
      "outputs": [
        {
          "internalType": "uint256[]",
          "name": "amounts",
          "type": "uint256[]"
        }
      ],
      "stateMutability": "nonpayable",
      "type": "function"
    },
    {
      "inputs": [
        {
          "internalType": "uint256",
          "name": "amountOut",
          "type": "uint256"
        },
        {
          "internalType": "uint256",
          "name": "amountInMax",
          "type": "uint256"
        },
        {
          "internalType": "address[]",
          "name": "path",
          "type": "address[]"
        },
        {
          "internalType": "address",
          "name": "to",
          "type": "address"
        },
        {
          "internalType": "uint256",
          "name": "deadline",
          "type": "uint256"
        }
      ],
      "name": "swapTokensForExactTokens",
      "outputs": [
        {
          "internalType": "uint256[]",
          "name": "amounts",
          "type": "uint256[]"
        }
      ],
      "stateMutability": "nonpayable",
      "type": "function"
    },
    {
      "stateMutability": "payable",
      "type": "receive"
    }
  ],
  "bytecode": "0x60c06040523480156200001157600080fd5b5060405162005fd738038062005fd78339818101604052810190620000379190620000c4565b8173ffffffffffffffffffffffffffffffffffffffff1660808173ffffffffffffffffffffffffffffffffffffffff1660601b815250508073ffffffffffffffffffffffffffffffffffffffff1660a08173ffffffffffffffffffffffffffffffffffffffff1660601b81525050505062000153565b600081519050620000be8162000139565b92915050565b60008060408385031215620000d857600080fd5b6000620000e885828601620000ad565b9250506020620000fb85828601620000ad565b9150509250929050565b6000620001128262000119565b9050919050565b600073ffffffffffffffffffffffffffffffffffffffff82169050919050565b620001448162000105565b81146200015057600080fd5b50565b60805160601c60a05160601c615d16620002c160003960008181610135015281816106c7015281816107050152818161080201528181610b970152818161114b015281816114d4015281816116360152818161176c0152818161194601528181611a0801528181611f4b01528181611fcf0152818161209301528181612438015281816126bf015281816127180152818161274c015281816127cd015281816129ac01528181612b7a0152612c3c0152600081816108ef01528181610a4001528181610cd601528181610d0e01528181610e5201528181610fa3015281816112380152818161137d015281816116140152818161184b01528181611a4701528181611ca401528181611de90152818161217f015281816123b5015281816123de0152818161241601528181612593015281816126f601528181612a8b01528181612c7b015281816137f10152818161386b01528181613f0101528181613fc8015261407d0152615d166000f3fe60806040526004361061012e5760003560e01c80638803dbee116100ab578063c45a01551161006f578063c45a015514610533578063d06ca61f1461055e578063ded9382a1461059b578063e8e33700146105d9578063f305d71914610618578063fb3bdb411461064a576101b7565b80638803dbee14610413578063ad5c464814610450578063ad615dec1461047b578063af2979eb146104b8578063baa2abde146104f5576101b7565b806338ed1739116100f257806338ed1739146102ef5780634a25d94a1461032c5780635b0d5984146103695780637ff36ab5146103a657806385f8c259146103d6576101b7565b806302751cec146101bc578063054d50d4146101fa57806318cbafe5146102375780631f00ca74146102745780632195995c146102b1576101b7565b366101b7577f000000000000000000000000000000000000000000000000000000000000000073ffffffffffffffffffffffffffffffffffffffff163373ffffffffffffffffffffffffffffffffffffffff16146101b5577f4e487b7100000000000000000000000000000000000000000000000000000000600052600160045260246000fd5b005b600080fd5b3480156101c857600080fd5b506101e360048036038101906101de919061472d565b61067a565b6040516101f19291906152c1565b60405180910390f35b34801561020657600080fd5b50610221600480360381019061021c9190614ad4565b6107a4565b60405161022e91906152a6565b60405180910390f35b34801561024357600080fd5b5061025e60048036038101906102599190614a42565b6107ba565b60405161026b9190615084565b60405180910390f35b34801561028057600080fd5b5061029b600480360381019061029691906149b2565b610ccf565b6040516102a89190615084565b60405180910390f35b3480156102bd57600080fd5b506102d860048036038101906102d3919061458b565b610d04565b6040516102e69291906152c1565b60405180910390f35b3480156102fb57600080fd5b5061031660048036038101906103119190614a42565b610e07565b6040516103239190615084565b60405180910390f35b34801561033857600080fd5b50610353600480360381019061034e9190614a42565b611103565b6040516103609190615084565b60405180910390f35b34801561037557600080fd5b50610390600480360381019061038b91906147b6565b61160c565b60405161039d91906152a6565b60405180910390f35b6103c060048036038101906103bb9190614932565b611724565b6040516103cd9190615084565b60405180910390f35b3480156103e257600080fd5b506103fd60048036038101906103f89190614ad4565b611c43565b60405161040a91906152a6565b60405180910390f35b34801561041f57600080fd5b5061043a60048036038101906104359190614a42565b611c59565b6040516104479190615084565b60405180910390f35b34801561045c57600080fd5b50610465611f49565b6040516104729190614f71565b60405180910390f35b34801561048757600080fd5b506104a2600480360381019061049d9190614ad4565b611f6d565b6040516104af91906152a6565b60405180910390f35b3480156104c457600080fd5b506104df60048036038101906104da919061472d565b611f83565b6040516104ec91906152a6565b60405180910390f35b34801561050157600080fd5b5061051c600480360381019061051791906144ed565b612131565b60405161052a9291906152c1565b60405180910390f35b34801561053f57600080fd5b506105486123b3565b6040516105559190614f71565b60405180910390f35b34801561056a57600080fd5b50610585600480360381019061058091906149b2565b6123d7565b6040516105929190615084565b60405180910390f35b3480156105a757600080fd5b506105c260048036038101906105bd91906147b6565b61240c565b6040516105d09291906152c1565b60405180910390f35b3480156105e557600080fd5b5061060060048036038101906105fb919061467b565b61252d565b60405161060f93929190615336565b60405180910390f35b610632600480360381019061062d919061472d565b612670565b60405161064193929190615336565b60405180910390f35b610664600480360381019061065f9190614932565b612964565b6040516106719190615084565b60405180910390f35b60008082428110156106c1576040517f08c379a00000000000000000000000000000000000000000000000000000000081526004016106b8906150a6565b60405180910390fd5b6106f0897f00000000000000000000000000000000000000000000000000000000000000008a8a8a308a612131565b8093508194505050610703898685612f17565b7f000000000000000000000000000000000000000000000000000000000000000073ffffffffffffffffffffffffffffffffffffffff16632e1a7d4d836040518263ffffffff1660e01b815260040161075c91906152a6565b600060405180830381600087803b15801561077657600080fd5b505af115801561078a573d6000803e3d6000fd5b50505050610798858361304d565b50965096945050505050565b60006107b1848484613173565b90509392505050565b60608142811015610800576040517f08c379a00000000000000000000000000000000000000000000000000000000081526004016107f7906150a6565b60405180910390fd5b7f000000000000000000000000000000000000000000000000000000000000000073ffffffffffffffffffffffffffffffffffffffff168686600189899050610849919061551b565b81811061087f577f4e487b7100000000000000000000000000000000000000000000000000000000600052603260045260246000fd5b9050602002016020810190610894919061449b565b73ffffffffffffffffffffffffffffffffffffffff16146108ea576040517f08c379a00000000000000000000000000000000000000000000000000000000081526004016108e190615166565b60405180910390fd5b6109567f000000000000000000000000000000000000000000000000000000000000000089888880806020026020016040519081016040528093929190818152602001838360200280828437600081840152601f19601f8201169050808301925050505050505061325d565b9150868260018451610968919061551b565b8151811061099f577f4e487b7100000000000000000000000000000000000000000000000000000000600052603260045260246000fd5b602002602001015110156109e8576040517f08c379a00000000000000000000000000000000000000000000000000000000081526004016109df90615226565b60405180910390fd5b610b4986866000818110610a25577f4e487b7100000000000000000000000000000000000000000000000000000000600052603260045260246000fd5b9050602002016020810190610a3a919061449b565b33610b027f00000000000000000000000000000000000000000000000000000000000000008a8a6000818110610a99577f4e487b7100000000000000000000000000000000000000000000000000000000600052603260045260246000fd5b9050602002016020810190610aae919061449b565b8b8b6001818110610ae8577f4e487b7100000000000000000000000000000000000000000000000000000000600052603260045260246000fd5b9050602002016020810190610afd919061449b565b6134cc565b85600081518110610b3c577f4e487b7100000000000000000000000000000000000000000000000000000000600052603260045260246000fd5b6020026020010151613544565b610b9582878780806020026020016040519081016040528093929190818152602001838360200280828437600081840152601f19601f820116905080830192505050505050503061367d565b7f000000000000000000000000000000000000000000000000000000000000000073ffffffffffffffffffffffffffffffffffffffff16632e1a7d4d8360018551610be0919061551b565b81518110610c17577f4e487b7100000000000000000000000000000000000000000000000000000000600052603260045260246000fd5b60200260200101516040518263ffffffff1660e01b8152600401610c3b91906152a6565b600060405180830381600087803b158015610c5557600080fd5b505af1158015610c69573d6000803e3d6000fd5b50505050610cc4848360018551610c80919061551b565b81518110610cb7577f4e487b7100000000000000000000000000000000000000000000000000000000600052603260045260246000fd5b602002602001015161304d565b509695505050505050565b6060610cfc7f00000000000000000000000000000000000000000000000000000000000000008484613994565b905092915050565b6000806000610d347f00000000000000000000000000000000000000000000000000000000000000008f8f6134cc565b9050600087610d43578c610d65565b7fffffffffffffffffffffffffffffffffffffffffffffffffffffffffffffffff5b90508173ffffffffffffffffffffffffffffffffffffffff1663d505accf3330848d8c8c8c6040518863ffffffff1660e01b8152600401610dac9796959493929190614fec565b600060405180830381600087803b158015610dc657600080fd5b505af1158015610dda573d6000803e3d6000fd5b50505050610ded8f8f8f8f8f8f8f612131565b809450819550505050509b509b9950505050505050505050565b60608142811015610e4d576040517f08c379a0000000000000000000000000000000000000000000000000000000008152600401610e44906150a6565b60405180910390fd5b610eb97f000000000000000000000000000000000000000000000000000000000000000089888880806020026020016040519081016040528093929190818152602001838360200280828437600081840152601f19601f8201169050808301925050505050505061325d565b9150868260018451610ecb919061551b565b81518110610f02577f4e487b7100000000000000000000000000000000000000000000000000000000600052603260045260246000fd5b60200260200101511015610f4b576040517f08c379a0000000000000000000000000000000000000000000000000000000008152600401610f4290615226565b60405180910390fd5b6110ac86866000818110610f88577f4e487b7100000000000000000000000000000000000000000000000000000000600052603260045260246000fd5b9050602002016020810190610f9d919061449b565b336110657f00000000000000000000000000000000000000000000000000000000000000008a8a6000818110610ffc577f4e487b7100000000000000000000000000000000000000000000000000000000600052603260045260246000fd5b9050602002016020810190611011919061449b565b8b8b600181811061104b577f4e487b7100000000000000000000000000000000000000000000000000000000600052603260045260246000fd5b9050602002016020810190611060919061449b565b6134cc565b8560008151811061109f577f4e487b7100000000000000000000000000000000000000000000000000000000600052603260045260246000fd5b6020026020010151613544565b6110f882878780806020026020016040519081016040528093929190818152602001838360200280828437600081840152601f19601f820116905080830192505050505050508661367d565b509695505050505050565b60608142811015611149576040517f08c379a0000000000000000000000000000000000000000000000000000000008152600401611140906150a6565b60405180910390fd5b7f000000000000000000000000000000000000000000000000000000000000000073ffffffffffffffffffffffffffffffffffffffff168686600189899050611192919061551b565b8181106111c8577f4e487b7100000000000000000000000000000000000000000000000000000000600052603260045260246000fd5b90506020020160208101906111dd919061449b565b73ffffffffffffffffffffffffffffffffffffffff1614611233576040517f08c379a000000000000000000000000000000000000000000000000000000000815260040161122a90615166565b60405180910390fd5b61129f7f000000000000000000000000000000000000000000000000000000000000000089888880806020026020016040519081016040528093929190818152602001838360200280828437600081840152601f19601f82011690508083019250505050505050613994565b915086826000815181106112dc577f4e487b7100000000000000000000000000000000000000000000000000000000600052603260045260246000fd5b60200260200101511115611325576040517f08c379a000000000000000000000000000000000000000000000000000000000815260040161131c906151e6565b60405180910390fd5b61148686866000818110611362577f4e487b7100000000000000000000000000000000000000000000000000000000600052603260045260246000fd5b9050602002016020810190611377919061449b565b3361143f7f00000000000000000000000000000000000000000000000000000000000000008a8a60008181106113d6577f4e487b7100000000000000000000000000000000000000000000000000000000600052603260045260246000fd5b90506020020160208101906113eb919061449b565b8b8b6001818110611425577f4e487b7100000000000000000000000000000000000000000000000000000000600052603260045260246000fd5b905060200201602081019061143a919061449b565b6134cc565b85600081518110611479577f4e487b7100000000000000000000000000000000000000000000000000000000600052603260045260246000fd5b6020026020010151613544565b6114d282878780806020026020016040519081016040528093929190818152602001838360200280828437600081840152601f19601f820116905080830192505050505050503061367d565b7f000000000000000000000000000000000000000000000000000000000000000073ffffffffffffffffffffffffffffffffffffffff16632e1a7d4d836001855161151d919061551b565b81518110611554577f4e487b7100000000000000000000000000000000000000000000000000000000600052603260045260246000fd5b60200260200101516040518263ffffffff1660e01b815260040161157891906152a6565b600060405180830381600087803b15801561159257600080fd5b505af11580156115a6573d6000803e3d6000fd5b505050506116018483600185516115bd919061551b565b815181106115f4577f4e487b7100000000000000000000000000000000000000000000000000000000600052603260045260246000fd5b602002602001015161304d565b509695505050505050565b60008061165a7f00000000000000000000000000000000000000000000000000000000000000008d7f00000000000000000000000000000000000000000000000000000000000000006134cc565b9050600086611669578b61168b565b7fffffffffffffffffffffffffffffffffffffffffffffffffffffffffffffffff5b90508173ffffffffffffffffffffffffffffffffffffffff1663d505accf3330848c8b8b8b6040518863ffffffff1660e01b81526004016116d29796959493929190614fec565b600060405180830381600087803b1580156116ec57600080fd5b505af1158015611700573d6000803e3d6000fd5b505050506117128d8d8d8d8d8d611f83565b925050509a9950505050505050505050565b6060814281101561176a576040517f08c379a0000000000000000000000000000000000000000000000000000000008152600401611761906150a6565b60405180910390fd5b7f000000000000000000000000000000000000000000000000000000000000000073ffffffffffffffffffffffffffffffffffffffff16868660008181106117db577f4e487b7100000000000000000000000000000000000000000000000000000000600052603260045260246000fd5b90506020020160208101906117f0919061449b565b73ffffffffffffffffffffffffffffffffffffffff1614611846576040517f08c379a000000000000000000000000000000000000000000000000000000000815260040161183d90615166565b60405180910390fd5b6118b27f000000000000000000000000000000000000000000000000000000000000000034888880806020026020016040519081016040528093929190818152602001838360200280828437600081840152601f19601f8201169050808301925050505050505061325d565b91508682600184516118c4919061551b565b815181106118fb577f4e487b7100000000000000000000000000000000000000000000000000000000600052603260045260246000fd5b60200260200101511015611944576040517f08c379a000000000000000000000000000000000000000000000000000000000815260040161193b90615226565b60405180910390fd5b7f000000000000000000000000000000000000000000000000000000000000000073ffffffffffffffffffffffffffffffffffffffff1663d0e30db0836000815181106119ba577f4e487b7100000000000000000000000000000000000000000000000000000000600052603260045260246000fd5b60200260200101516040518263ffffffff1660e01b81526004016000604051808303818588803b1580156119ed57600080fd5b505af1158015611a01573d6000803e3d6000fd5b50505050507f000000000000000000000000000000000000000000000000000000000000000073ffffffffffffffffffffffffffffffffffffffff1663a9059cbb611b097f000000000000000000000000000000000000000000000000000000000000000089896000818110611aa0577f4e487b7100000000000000000000000000000000000000000000000000000000600052603260045260246000fd5b9050602002016020810190611ab5919061449b565b8a8a6001818110611aef577f4e487b7100000000000000000000000000000000000000000000000000000000600052603260045260246000fd5b9050602002016020810190611b04919061449b565b6134cc565b84600081518110611b43577f4e487b7100000000000000000000000000000000000000000000000000000000600052603260045260246000fd5b60200260200101516040518363ffffffff1660e01b8152600401611b6892919061505b565b602060405180830381600087803b158015611b8257600080fd5b505af1158015611b96573d6000803e3d6000fd5b505050506040513d601f19601f82011682018060405250810190611bba9190614891565b611bed577f4e487b7100000000000000000000000000000000000000000000000000000000600052600160045260246000fd5b611c3982878780806020026020016040519081016040528093929190818152602001838360200280828437600081840152601f19601f820116905080830192505050505050508661367d565b5095945050505050565b6000611c50848484613c13565b90509392505050565b60608142811015611c9f576040517f08c379a0000000000000000000000000000000000000000000000000000000008152600401611c96906150a6565b60405180910390fd5b611d0b7f000000000000000000000000000000000000000000000000000000000000000089888880806020026020016040519081016040528093929190818152602001838360200280828437600081840152601f19601f82011690508083019250505050505050613994565b91508682600081518110611d48577f4e487b7100000000000000000000000000000000000000000000000000000000600052603260045260246000fd5b60200260200101511115611d91576040517f08c379a0000000000000000000000000000000000000000000000000000000008152600401611d88906151e6565b60405180910390fd5b611ef286866000818110611dce577f4e487b7100000000000000000000000000000000000000000000000000000000600052603260045260246000fd5b9050602002016020810190611de3919061449b565b33611eab7f00000000000000000000000000000000000000000000000000000000000000008a8a6000818110611e42577f4e487b7100000000000000000000000000000000000000000000000000000000600052603260045260246000fd5b9050602002016020810190611e57919061449b565b8b8b6001818110611e91577f4e487b7100000000000000000000000000000000000000000000000000000000600052603260045260246000fd5b9050602002016020810190611ea6919061449b565b6134cc565b85600081518110611ee5577f4e487b7100000000000000000000000000000000000000000000000000000000600052603260045260246000fd5b6020026020010151613544565b611f3e82878780806020026020016040519081016040528093929190818152602001838360200280828437600081840152601f19601f820116905080830192505050505050508661367d565b509695505050505050565b7f000000000000000000000000000000000000000000000000000000000000000081565b6000611f7a848484613d03565b90509392505050565b60008142811015611fc9576040517f08c379a0000000000000000000000000000000000000000000000000000000008152600401611fc0906150a6565b60405180910390fd5b611ff8887f00000000000000000000000000000000000000000000000000000000000000008989893089612131565b90508092505061209188858a73ffffffffffffffffffffffffffffffffffffffff166370a08231306040518263ffffffff1660e01b815260040161203c9190614f71565b60206040518083038186803b15801561205457600080fd5b505afa158015612068573d6000803e3d6000fd5b505050506040513d601f19601f8201168201806040525081019061208c9190614909565b612f17565b7f000000000000000000000000000000000000000000000000000000000000000073ffffffffffffffffffffffffffffffffffffffff16632e1a7d4d836040518263ffffffff1660e01b81526004016120ea91906152a6565b600060405180830381600087803b15801561210457600080fd5b505af1158015612118573d6000803e3d6000fd5b50505050612126848361304d565b509695505050505050565b6000808242811015612178576040517f08c379a000000000000000000000000000000000000000000000000000000000815260040161216f906150a6565b60405180910390fd5b60006121a57f00000000000000000000000000000000000000000000000000000000000000008c8c6134cc565b90508073ffffffffffffffffffffffffffffffffffffffff166323b872dd33838c6040518463ffffffff1660e01b81526004016121e493929190614fb5565b602060405180830381600087803b1580156121fe57600080fd5b505af1158015612212573d6000803e3d6000fd5b505050506040513d601f19601f820116820180604052508101906122369190614891565b506000808273ffffffffffffffffffffffffffffffffffffffff166389afcb44896040518263ffffffff1660e01b81526004016122739190614f71565b6040805180830381600087803b15801561228c57600080fd5b505af11580156122a0573d6000803e3d6000fd5b505050506040513d601f19601f820116820180604052508101906122c49190614a06565b9150915060006122d48e8e613db6565b5090508073ffffffffffffffffffffffffffffffffffffffff168e73ffffffffffffffffffffffffffffffffffffffff1614612311578183612314565b82825b80975081985050508a87101561235f576040517f08c379a000000000000000000000000000000000000000000000000000000000815260040161235690615206565b60405180910390fd5b898610156123a2576040517f08c379a000000000000000000000000000000000000000000000000000000000815260040161239990615146565b60405180910390fd5b505050505097509795505050505050565b7f000000000000000000000000000000000000000000000000000000000000000081565b60606124047f0000000000000000000000000000000000000000000000000000000000000000848461325d565b905092915050565b600080600061245c7f00000000000000000000000000000000000000000000000000000000000000008e7f00000000000000000000000000000000000000000000000000000000000000006134cc565b905060008761246b578c61248d565b7fffffffffffffffffffffffffffffffffffffffffffffffffffffffffffffffff5b90508173ffffffffffffffffffffffffffffffffffffffff1663d505accf3330848d8c8c8c6040518863ffffffff1660e01b81526004016124d49796959493929190614fec565b600060405180830381600087803b1580156124ee57600080fd5b505af1158015612502573d6000803e3d6000fd5b505050506125148e8e8e8e8e8e61067a565b809450819550505050509a509a98505050505050505050565b60008060008342811015612576576040517f08c379a000000000000000000000000000000000000000000000000000000000815260040161256d906150a6565b60405180910390fd5b6125848c8c8c8c8c8c613ee4565b809450819550505060006125b97f00000000000000000000000000000000000000000000000000000000000000008e8e6134cc565b90506125c78d338388613544565b6125d38c338387613544565b8073ffffffffffffffffffffffffffffffffffffffff16636a627842886040518263ffffffff1660e01b815260040161260c9190614f71565b602060405180830381600087803b15801561262657600080fd5b505af115801561263a573d6000803e3d6000fd5b505050506040513d601f19601f8201168201806040525081019061265e9190614909565b92505050985098509895505050505050565b600080600083428110156126b9576040517f08c379a00000000000000000000000000000000000000000000000000000000081526004016126b0906150a6565b60405180910390fd5b6126e78a7f00000000000000000000000000000000000000000000000000000000000000008b348c8c613ee4565b8094508195505050600061273c7f00000000000000000000000000000000000000000000000000000000000000008c7f00000000000000000000000000000000000000000000000000000000000000006134cc565b905061274a8b338388613544565b7f000000000000000000000000000000000000000000000000000000000000000073ffffffffffffffffffffffffffffffffffffffff1663d0e30db0856040518263ffffffff1660e01b81526004016000604051808303818588803b1580156127b257600080fd5b505af11580156127c6573d6000803e3d6000fd5b50505050507f000000000000000000000000000000000000000000000000000000000000000073ffffffffffffffffffffffffffffffffffffffff1663a9059cbb82866040518363ffffffff1660e01b815260040161282692919061505b565b602060405180830381600087803b15801561284057600080fd5b505af1158015612854573d6000803e3d6000fd5b505050506040513d601f19601f820116820180604052508101906128789190614891565b6128ab577f4e487b7100000000000000000000000000000000000000000000000000000000600052600160045260246000fd5b8073ffffffffffffffffffffffffffffffffffffffff16636a627842886040518263ffffffff1660e01b81526004016128e49190614f71565b602060405180830381600087803b1580156128fe57600080fd5b505af1158015612912573d6000803e3d6000fd5b505050506040513d601f19601f820116820180604052508101906129369190614909565b92508334111561295657612955338534612950919061551b565b61304d565b5b505096509650969350505050565b606081428110156129aa576040517f08c379a00000000000000000000000000000000000000000000000000000000081526004016129a1906150a6565b60405180910390fd5b7f000000000000000000000000000000000000000000000000000000000000000073ffffffffffffffffffffffffffffffffffffffff1686866000818110612a1b577f4e487b7100000000000000000000000000000000000000000000000000000000600052603260045260246000fd5b9050602002016020810190612a30919061449b565b73ffffffffffffffffffffffffffffffffffffffff1614612a86576040517f08c379a0000000000000000000000000000000000000000000000000000000008152600401612a7d90615166565b60405180910390fd5b612af27f000000000000000000000000000000000000000000000000000000000000000088888880806020026020016040519081016040528093929190818152602001838360200280828437600081840152601f19601f82011690508083019250505050505050613994565b91503482600081518110612b2f577f4e487b7100000000000000000000000000000000000000000000000000000000600052603260045260246000fd5b60200260200101511115612b78576040517f08c379a0000000000000000000000000000000000000000000000000000000008152600401612b6f906151e6565b60405180910390fd5b7f000000000000000000000000000000000000000000000000000000000000000073ffffffffffffffffffffffffffffffffffffffff1663d0e30db083600081518110612bee577f4e487b7100000000000000000000000000000000000000000000000000000000600052603260045260246000fd5b60200260200101516040518263ffffffff1660e01b81526004016000604051808303818588803b158015612c2157600080fd5b505af1158015612c35573d6000803e3d6000fd5b50505050507f000000000000000000000000000000000000000000000000000000000000000073ffffffffffffffffffffffffffffffffffffffff1663a9059cbb612d3d7f000000000000000000000000000000000000000000000000000000000000000089896000818110612cd4577f4e487b7100000000000000000000000000000000000000000000000000000000600052603260045260246000fd5b9050602002016020810190612ce9919061449b565b8a8a6001818110612d23577f4e487b7100000000000000000000000000000000000000000000000000000000600052603260045260246000fd5b9050602002016020810190612d38919061449b565b6134cc565b84600081518110612d77577f4e487b7100000000000000000000000000000000000000000000000000000000600052603260045260246000fd5b60200260200101516040518363ffffffff1660e01b8152600401612d9c92919061505b565b602060405180830381600087803b158015612db657600080fd5b505af1158015612dca573d6000803e3d6000fd5b505050506040513d601f19601f82011682018060405250810190612dee9190614891565b612e21577f4e487b7100000000000000000000000000000000000000000000000000000000600052600160045260246000fd5b612e6d82878780806020026020016040519081016040528093929190818152602001838360200280828437600081840152601f19601f820116905080830192505050505050508661367d565b81600081518110612ea7577f4e487b7100000000000000000000000000000000000000000000000000000000600052603260045260246000fd5b6020026020010151341115612f0d57612f0c3383600081518110612ef4577f4e487b7100000000000000000000000000000000000000000000000000000000600052603260045260246000fd5b602002602001015134612f07919061551b565b61304d565b5b5095945050505050565b6000808473ffffffffffffffffffffffffffffffffffffffff1663a9059cbb8585604051602401612f4992919061505b565b6040516020818303038152906040529060e01b6020820180517bffffffffffffffffffffffffffffffffffffffffffffffffffffffff8381831617835250505050604051612f979190614f5a565b6000604051808303816000865af19150503d8060008114612fd4576040519150601f19603f3d011682016040523d82523d6000602084013e612fd9565b606091505b509150915081801561300757506000815114806130065750808060200190518101906130059190614891565b5b5b613046576040517f08c379a000000000000000000000000000000000000000000000000000000000815260040161303d90615246565b60405180910390fd5b5050505050565b60008273ffffffffffffffffffffffffffffffffffffffff1682600067ffffffffffffffff8111156130a8577f4e487b7100000000000000000000000000000000000000000000000000000000600052604160045260246000fd5b6040519080825280601f01601f1916602001820160405280156130da5781602001600182028036833780820191505090505b506040516130e89190614f5a565b60006040518083038185875af1925050503d8060008114613125576040519150601f19603f3d011682016040523d82523d6000602084013e61312a565b606091505b505090508061316e576040517f08c379a000000000000000000000000000000000000000000000000000000000815260040161316590615106565b60405180910390fd5b505050565b60008084116131b7576040517f08c379a00000000000000000000000000000000000000000000000000000000081526004016131ae90615286565b60405180910390fd5b6000831180156131c75750600082115b613206576040517f08c379a00000000000000000000000000000000000000000000000000000000081526004016131fd906151a6565b60405180910390fd5b60006103e58561321691906154c1565b90506000838261322691906154c1565b90506000826103e88761323991906154c1565b613243919061543a565b905080826132519190615490565b93505050509392505050565b60606002825110156132a4576040517f08c379a000000000000000000000000000000000000000000000000000000000815260040161329b90615186565b60405180910390fd5b815167ffffffffffffffff8111156132e5577f4e487b7100000000000000000000000000000000000000000000000000000000600052604160045260246000fd5b6040519080825280602002602001820160405280156133135781602001602082028036833780820191505090505b5090508281600081518110613351577f4e487b7100000000000000000000000000000000000000000000000000000000600052603260045260246000fd5b60200260200101818152505060005b6001835161336e919061551b565b8110156134c45760008061340f878685815181106133b5577f4e487b7100000000000000000000000000000000000000000000000000000000600052603260045260246000fd5b6020026020010151876001876133cb919061543a565b81518110613402577f4e487b7100000000000000000000000000000000000000000000000000000000600052603260045260246000fd5b60200260200101516141d7565b9150915061345e84848151811061344f577f4e487b7100000000000000000000000000000000000000000000000000000000600052603260045260246000fd5b60200260200101518383613173565b8460018561346c919061543a565b815181106134a3577f4e487b7100000000000000000000000000000000000000000000000000000000600052603260045260246000fd5b602002602001018181525050505080806134bc90615692565b915050613360565b509392505050565b60008060006134db8585613db6565b9150915060ff60f81b8683836040516020016134f8929190614ee6565b6040516020818303038152906040528051906020012060405160200161352093929190614f12565b6040516020818303038152906040528051906020012060001c925050509392505050565b6000808573ffffffffffffffffffffffffffffffffffffffff166323b872dd86868660405160240161357893929190614fb5565b6040516020818303038152906040529060e01b6020820180517bffffffffffffffffffffffffffffffffffffffffffffffffffffffff83818316178352505050506040516135c69190614f5a565b6000604051808303816000865af19150503d8060008114613603576040519150601f19603f3d011682016040523d82523d6000602084013e613608565b606091505b509150915081801561363657506000815114806136355750808060200190518101906136349190614891565b5b5b613675576040517f08c379a000000000000000000000000000000000000000000000000000000000815260040161366c906150e6565b60405180910390fd5b505050505050565b60005b6001835161368e919061551b565b81101561398e576000808483815181106136d1577f4e487b7100000000000000000000000000000000000000000000000000000000600052603260045260246000fd5b6020026020010151856001856136e7919061543a565b8151811061371e577f4e487b7100000000000000000000000000000000000000000000000000000000600052603260045260246000fd5b60200260200101519150915060006137368383613db6565b509050600087600186613749919061543a565b81518110613780577f4e487b7100000000000000000000000000000000000000000000000000000000600052603260045260246000fd5b602002602001015190506000808373ffffffffffffffffffffffffffffffffffffffff168673ffffffffffffffffffffffffffffffffffffffff16146137c8578260006137cc565b6000835b91509150600060028a516137e0919061551b565b88106137ec5788613864565b6138637f0000000000000000000000000000000000000000000000000000000000000000878c60028c61381f919061543a565b81518110613856577f4e487b7100000000000000000000000000000000000000000000000000000000600052603260045260246000fd5b60200260200101516134cc565b5b90506138917f000000000000000000000000000000000000000000000000000000000000000088886134cc565b73ffffffffffffffffffffffffffffffffffffffff1663022c0d9f848484600067ffffffffffffffff8111156138f0577f4e487b7100000000000000000000000000000000000000000000000000000000600052604160045260246000fd5b6040519080825280601f01601f1916602001820160405280156139225781602001600182028036833780820191505090505b506040518563ffffffff1660e01b815260040161394294939291906152ea565b600060405180830381600087803b15801561395c57600080fd5b505af1158015613970573d6000803e3d6000fd5b5050505050505050505050808061398690615692565b915050613680565b50505050565b60606002825110156139db576040517f08c379a00000000000000000000000000000000000000000000000000000000081526004016139d290615186565b60405180910390fd5b815167ffffffffffffffff811115613a1c577f4e487b7100000000000000000000000000000000000000000000000000000000600052604160045260246000fd5b604051908082528060200260200182016040528015613a4a5781602001602082028036833780820191505090505b509050828160018351613a5d919061551b565b81518110613a94577f4e487b7100000000000000000000000000000000000000000000000000000000600052603260045260246000fd5b602002602001018181525050600060018351613ab0919061551b565b90505b6000811115613c0b57600080613b568786600186613ad1919061551b565b81518110613b08577f4e487b7100000000000000000000000000000000000000000000000000000000600052603260045260246000fd5b6020026020010151878681518110613b49577f4e487b7100000000000000000000000000000000000000000000000000000000600052603260045260246000fd5b60200260200101516141d7565b91509150613ba5848481518110613b96577f4e487b7100000000000000000000000000000000000000000000000000000000600052603260045260246000fd5b60200260200101518383613c13565b84600185613bb3919061551b565b81518110613bea577f4e487b7100000000000000000000000000000000000000000000000000000000600052603260045260246000fd5b60200260200101818152505050508080613c0390615637565b915050613ab3565b509392505050565b6000808411613c57576040517f08c379a0000000000000000000000000000000000000000000000000000000008152600401613c4e906150c6565b60405180910390fd5b600083118015613c675750600082115b613ca6576040517f08c379a0000000000000000000000000000000000000000000000000000000008152600401613c9d906151a6565b60405180910390fd5b60006103e88585613cb791906154c1565b613cc191906154c1565b905060006103e58685613cd4919061551b565b613cde91906154c1565b905060018183613cee9190615490565b613cf8919061543a565b925050509392505050565b6000808411613d47576040517f08c379a0000000000000000000000000000000000000000000000000000000008152600401613d3e906151c6565b60405180910390fd5b600083118015613d575750600082115b613d96576040517f08c379a0000000000000000000000000000000000000000000000000000000008152600401613d8d906151a6565b60405180910390fd5b828285613da391906154c1565b613dad9190615490565b90509392505050565b6000808273ffffffffffffffffffffffffffffffffffffffff168473ffffffffffffffffffffffffffffffffffffffff161415613e28576040517f08c379a0000000000000000000000000000000000000000000000000000000008152600401613e1f90615126565b60405180910390fd5b8273ffffffffffffffffffffffffffffffffffffffff168473ffffffffffffffffffffffffffffffffffffffff1610613e62578284613e65565b83835b8092508193505050600073ffffffffffffffffffffffffffffffffffffffff168273ffffffffffffffffffffffffffffffffffffffff161415613edd576040517f08c379a0000000000000000000000000000000000000000000000000000000008152600401613ed490615266565b60405180910390fd5b9250929050565b600080600073ffffffffffffffffffffffffffffffffffffffff167f000000000000000000000000000000000000000000000000000000000000000073ffffffffffffffffffffffffffffffffffffffff1663e6a439058a8a6040518363ffffffff1660e01b8152600401613f5a929190614f8c565b60206040518083038186803b158015613f7257600080fd5b505afa158015613f86573d6000803e3d6000fd5b505050506040513d601f19601f82011682018060405250810190613faa91906144c4565b73ffffffffffffffffffffffffffffffffffffffff161415614075577f000000000000000000000000000000000000000000000000000000000000000073ffffffffffffffffffffffffffffffffffffffff1663c9c6539689896040518363ffffffff1660e01b8152600401614021929190614f8c565b602060405180830381600087803b15801561403b57600080fd5b505af115801561404f573d6000803e3d6000fd5b505050506040513d601f19601f8201168201806040525081019061407391906144c4565b505b6000806140a37f00000000000000000000000000000000000000000000000000000000000000008b8b6141d7565b915091506000821480156140b75750600081145b156140cb57878780945081955050506141ca565b60006140d8898484613d03565b90508781116141335785811015614124576040517f08c379a000000000000000000000000000000000000000000000000000000000815260040161411b90615146565b60405180910390fd5b888180955081965050506141c8565b6000614140898486613d03565b905089811115614179577f4e487b7100000000000000000000000000000000000000000000000000000000600052600160045260246000fd5b878110156141bc576040517f08c379a00000000000000000000000000000000000000000000000000000000081526004016141b390615206565b60405180910390fd5b80898096508197505050505b505b5050965096945050505050565b60008060006141e68585613db6565b5090506000806141f78888886134cc565b73ffffffffffffffffffffffffffffffffffffffff16630902f1ac6040518163ffffffff1660e01b815260040160606040518083038186803b15801561423c57600080fd5b505afa158015614250573d6000803e3d6000fd5b505050506040513d601f19601f8201168201806040525081019061427491906148ba565b506dffffffffffffffffffffffffffff1691506dffffffffffffffffffffffffffff1691508273ffffffffffffffffffffffffffffffffffffffff168773ffffffffffffffffffffffffffffffffffffffff16146142d35780826142d6565b81815b8095508196505050505050935093915050565b60006142fc6142f784615392565b61536d565b9050808382526020820190508285602086028201111561431b57600080fd5b60005b8581101561434b57816143318882614355565b84526020840193506020830192505060018101905061431e565b5050509392505050565b60008135905061436481615c3f565b92915050565b60008151905061437981615c3f565b92915050565b60008083601f84011261439157600080fd5b8235905067ffffffffffffffff8111156143aa57600080fd5b6020830191508360208202830111156143c257600080fd5b9250929050565b600082601f8301126143da57600080fd5b81356143ea8482602086016142e9565b91505092915050565b60008135905061440281615c56565b92915050565b60008151905061441781615c56565b92915050565b60008135905061442c81615c6d565b92915050565b60008151905061444181615c84565b92915050565b60008135905061445681615c9b565b92915050565b60008151905061446b81615c9b565b92915050565b60008151905061448081615cb2565b92915050565b60008135905061449581615cc9565b92915050565b6000602082840312156144ad57600080fd5b60006144bb84828501614355565b91505092915050565b6000602082840312156144d657600080fd5b60006144e48482850161436a565b91505092915050565b600080600080600080600060e0888a03121561450857600080fd5b60006145168a828b01614355565b97505060206145278a828b01614355565b96505060406145388a828b01614447565b95505060606145498a828b01614447565b945050608061455a8a828b01614447565b93505060a061456b8a828b01614355565b92505060c061457c8a828b01614447565b91505092959891949750929550565b60008060008060008060008060008060006101608c8e0312156145ad57600080fd5b60006145bb8e828f01614355565b9b505060206145cc8e828f01614355565b9a505060406145dd8e828f01614447565b99505060606145ee8e828f01614447565b98505060806145ff8e828f01614447565b97505060a06146108e828f01614355565b96505060c06146218e828f01614447565b95505060e06146328e828f016143f3565b9450506101006146448e828f01614486565b9350506101206146568e828f0161441d565b9250506101406146688e828f0161441d565b9150509295989b509295989b9093969950565b600080600080600080600080610100898b03121561469857600080fd5b60006146a68b828c01614355565b98505060206146b78b828c01614355565b97505060406146c88b828c01614447565b96505060606146d98b828c01614447565b95505060806146ea8b828c01614447565b94505060a06146fb8b828c01614447565b93505060c061470c8b828c01614355565b92505060e061471d8b828c01614447565b9150509295985092959890939650565b60008060008060008060c0878903121561474657600080fd5b600061475489828a01614355565b965050602061476589828a01614447565b955050604061477689828a01614447565b945050606061478789828a01614447565b935050608061479889828a01614355565b92505060a06147a989828a01614447565b9150509295509295509295565b6000806000806000806000806000806101408b8d0312156147d657600080fd5b60006147e48d828e01614355565b9a505060206147f58d828e01614447565b99505060406148068d828e01614447565b98505060606148178d828e01614447565b97505060806148288d828e01614355565b96505060a06148398d828e01614447565b95505060c061484a8d828e016143f3565b94505060e061485b8d828e01614486565b93505061010061486d8d828e0161441d565b92505061012061487f8d828e0161441d565b9150509295989b9194979a5092959850565b6000602082840312156148a357600080fd5b60006148b184828501614408565b91505092915050565b6000806000606084860312156148cf57600080fd5b60006148dd86828701614432565b93505060206148ee86828701614432565b92505060406148ff86828701614471565b9150509250925092565b60006020828403121561491b57600080fd5b60006149298482850161445c565b91505092915050565b60008060008060006080868803121561494a57600080fd5b600061495888828901614447565b955050602086013567ffffffffffffffff81111561497557600080fd5b6149818882890161437f565b9450945050604061499488828901614355565b92505060606149a588828901614447565b9150509295509295909350565b600080604083850312156149c557600080fd5b60006149d385828601614447565b925050602083013567ffffffffffffffff8111156149f057600080fd5b6149fc858286016143c9565b9150509250929050565b60008060408385031215614a1957600080fd5b6000614a278582860161445c565b9250506020614a388582860161445c565b9150509250929050565b60008060008060008060a08789031215614a5b57600080fd5b6000614a6989828a01614447565b9650506020614a7a89828a01614447565b955050604087013567ffffffffffffffff811115614a9757600080fd5b614aa389828a0161437f565b94509450506060614ab689828a01614355565b9250506080614ac789828a01614447565b9150509295509295509295565b600080600060608486031215614ae957600080fd5b6000614af786828701614447565b9350506020614b0886828701614447565b9250506040614b1986828701614447565b9150509250925092565b6000614b2f8383614eb9565b60208301905092915050565b614b448161554f565b82525050565b614b5b614b568261554f565b6156db565b82525050565b6000614b6c826153ce565b614b7681856153f1565b9350614b81836153be565b8060005b83811015614bb2578151614b998882614b23565b9750614ba4836153e4565b925050600181019050614b85565b5085935050505092915050565b614bd0614bcb8261556d565b6156ed565b82525050565b614bdf81615599565b82525050565b614bf6614bf182615599565b6156f7565b82525050565b6000614c07826153d9565b614c118185615402565b9350614c21818560208601615604565b614c2a816157a0565b840191505092915050565b6000614c40826153d9565b614c4a8185615413565b9350614c5a818560208601615604565b80840191505092915050565b6000614c7360208361542f565b9150614c7e826157be565b602082019050919050565b6000614c9660188361541e565b9150614ca1826157e7565b602082019050919050565b6000614cb9602c8361541e565b9150614cc482615810565b604082019050919050565b6000614cdc60318361541e565b9150614ce78261585f565b604082019050919050565b6000614cff60348361541e565b9150614d0a826158ae565b604082019050919050565b6000614d2260258361541e565b9150614d2d826158fd565b604082019050919050565b6000614d4560268361541e565b9150614d508261594c565b604082019050919050565b6000614d68601d8361541e565b9150614d738261599b565b602082019050919050565b6000614d8b601e8361541e565b9150614d96826159c4565b602082019050919050565b6000614dae60288361541e565b9150614db9826159ed565b604082019050919050565b6000614dd160258361541e565b9150614ddc82615a3c565b604082019050919050565b6000614df460278361541e565b9150614dff82615a8b565b604082019050919050565b6000614e1760268361541e565b9150614e2282615ada565b604082019050919050565b6000614e3a602b8361541e565b9150614e4582615b29565b604082019050919050565b6000614e5d602d8361541e565b9150614e6882615b78565b604082019050919050565b6000614e80601e8361541e565b9150614e8b82615bc7565b602082019050919050565b6000614ea3602b8361541e565b9150614eae82615bf0565b604082019050919050565b614ec2816155dd565b82525050565b614ed1816155dd565b82525050565b614ee0816155f7565b82525050565b6000614ef28285614b4a565b601482019150614f028284614b4a565b6014820191508190509392505050565b6000614f1e8286614bbf565b600182019150614f2e8285614b4a565b601482019150614f3e8284614be5565b602082019150614f4d82614c66565b9150819050949350505050565b6000614f668284614c35565b915081905092915050565b6000602082019050614f866000830184614b3b565b92915050565b6000604082019050614fa16000830185614b3b565b614fae6020830184614b3b565b9392505050565b6000606082019050614fca6000830186614b3b565b614fd76020830185614b3b565b614fe46040830184614ec8565b949350505050565b600060e082019050615001600083018a614b3b565b61500e6020830189614b3b565b61501b6040830188614ec8565b6150286060830187614ec8565b6150356080830186614ed7565b61504260a0830185614bd6565b61504f60c0830184614bd6565b98975050505050505050565b60006040820190506150706000830185614b3b565b61507d6020830184614ec8565b9392505050565b6000602082019050818103600083015261509e8184614b61565b905092915050565b600060208201905081810360008301526150bf81614c89565b9050919050565b600060208201905081810360008301526150df81614cac565b9050919050565b600060208201905081810360008301526150ff81614ccf565b9050919050565b6000602082019050818103600083015261511f81614cf2565b9050919050565b6000602082019050818103600083015261513f81614d15565b9050919050565b6000602082019050818103600083015261515f81614d38565b9050919050565b6000602082019050818103600083015261517f81614d5b565b9050919050565b6000602082019050818103600083015261519f81614d7e565b9050919050565b600060208201905081810360008301526151bf81614da1565b9050919050565b600060208201905081810360008301526151df81614dc4565b9050919050565b600060208201905081810360008301526151ff81614de7565b9050919050565b6000602082019050818103600083015261521f81614e0a565b9050919050565b6000602082019050818103600083015261523f81614e2d565b9050919050565b6000602082019050818103600083015261525f81614e50565b9050919050565b6000602082019050818103600083015261527f81614e73565b9050919050565b6000602082019050818103600083015261529f81614e96565b9050919050565b60006020820190506152bb6000830184614ec8565b92915050565b60006040820190506152d66000830185614ec8565b6152e36020830184614ec8565b9392505050565b60006080820190506152ff6000830187614ec8565b61530c6020830186614ec8565b6153196040830185614b3b565b818103606083015261532b8184614bfc565b905095945050505050565b600060608201905061534b6000830186614ec8565b6153586020830185614ec8565b6153656040830184614ec8565b949350505050565b6000615377615388565b90506153838282615661565b919050565b6000604051905090565b600067ffffffffffffffff8211156153ad576153ac615771565b5b602082029050602081019050919050565b6000819050602082019050919050565b600081519050919050565b600081519050919050565b6000602082019050919050565b600082825260208201905092915050565b600082825260208201905092915050565b600081905092915050565b600082825260208201905092915050565b600081905092915050565b6000615445826155dd565b9150615450836155dd565b9250827fffffffffffffffffffffffffffffffffffffffffffffffffffffffffffffffff0382111561548557615484615713565b5b828201905092915050565b600061549b826155dd565b91506154a6836155dd565b9250826154b6576154b5615742565b5b828204905092915050565b60006154cc826155dd565b91506154d7836155dd565b9250817fffffffffffffffffffffffffffffffffffffffffffffffffffffffffffffffff04831182151516156155105761550f615713565b5b828202905092915050565b6000615526826155dd565b9150615531836155dd565b92508282101561554457615543615713565b5b828203905092915050565b600061555a826155bd565b9050919050565b60008115159050919050565b60007fff0000000000000000000000000000000000000000000000000000000000000082169050919050565b6000819050919050565b60006dffffffffffffffffffffffffffff82169050919050565b600073ffffffffffffffffffffffffffffffffffffffff82169050919050565b6000819050919050565b600063ffffffff82169050919050565b600060ff82169050919050565b60005b83811015615622578082015181840152602081019050615607565b83811115615631576000848401525b50505050565b6000615642826155dd565b9150600082141561565657615655615713565b5b600182039050919050565b61566a826157a0565b810181811067ffffffffffffffff8211171561568957615688615771565b5b80604052505050565b600061569d826155dd565b91507fffffffffffffffffffffffffffffffffffffffffffffffffffffffffffffffff8214156156d0576156cf615713565b5b600182019050919050565b60006156e682615701565b9050919050565b6000819050919050565b6000819050919050565b600061570c826157b1565b9050919050565b7f4e487b7100000000000000000000000000000000000000000000000000000000600052601160045260246000fd5b7f4e487b7100000000000000000000000000000000000000000000000000000000600052601260045260246000fd5b7f4e487b7100000000000000000000000000000000000000000000000000000000600052604160045260246000fd5b6000601f19601f8301169050919050565b60008160601b9050919050565b7f443533a897cfad2762695078bf6ee9b78b4edcda64ec31e1c83066cee4c90a7e600082015250565b7f556e69737761705632526f757465723a20455850495245440000000000000000600082015250565b7f556e697377617056324c6962726172793a20494e53554646494349454e545f4f60008201527f55545055545f414d4f554e540000000000000000000000000000000000000000602082015250565b7f5472616e7366657248656c7065723a3a7472616e7366657246726f6d3a20747260008201527f616e7366657246726f6d206661696c6564000000000000000000000000000000602082015250565b7f5472616e7366657248656c7065723a3a736166655472616e736665724554483a60008201527f20455448207472616e73666572206661696c6564000000000000000000000000602082015250565b7f556e697377617056324c6962726172793a204944454e544943414c5f4144445260008201527f4553534553000000000000000000000000000000000000000000000000000000602082015250565b7f556e69737761705632526f757465723a20494e53554646494349454e545f425f60008201527f414d4f554e540000000000000000000000000000000000000000000000000000602082015250565b7f556e69737761705632526f757465723a20494e56414c49445f50415448000000600082015250565b7f556e697377617056324c6962726172793a20494e56414c49445f504154480000600082015250565b7f556e697377617056324c6962726172793a20494e53554646494349454e545f4c60008201527f4951554944495459000000000000000000000000000000000000000000000000602082015250565b7f556e697377617056324c6962726172793a20494e53554646494349454e545f4160008201527f4d4f554e54000000000000000000000000000000000000000000000000000000602082015250565b7f556e69737761705632526f757465723a204558434553534956455f494e50555460008201527f5f414d4f554e5400000000000000000000000000000000000000000000000000602082015250565b7f556e69737761705632526f757465723a20494e53554646494349454e545f415f60008201527f414d4f554e540000000000000000000000000000000000000000000000000000602082015250565b7f556e69737761705632526f757465723a20494e53554646494349454e545f4f5560008201527f545055545f414d4f554e54000000000000000000000000000000000000000000602082015250565b7f5472616e7366657248656c7065723a3a736166655472616e736665723a20747260008201527f616e73666572206661696c656400000000000000000000000000000000000000602082015250565b7f556e697377617056324c6962726172793a205a45524f5f414444524553530000600082015250565b7f556e697377617056324c6962726172793a20494e53554646494349454e545f4960008201527f4e5055545f414d4f554e54000000000000000000000000000000000000000000602082015250565b615c488161554f565b8114615c5357600080fd5b50565b615c5f81615561565b8114615c6a57600080fd5b50565b615c7681615599565b8114615c8157600080fd5b50565b615c8d816155a3565b8114615c9857600080fd5b50565b615ca4816155dd565b8114615caf57600080fd5b50565b615cbb816155e7565b8114615cc657600080fd5b50565b615cd2816155f7565b8114615cdd57600080fd5b5056fea26469706673582212203dd9b25dd80c3235495e25bfc69593ebca1bf9ac58e53dc14c56c82117539a3b64736f6c63430008040033",
  "linkReferences": {},
  "deployedLinkReferences": {}
}